{
  "_format": "hh-sol-artifact-1",
  "contractName": "AuctionFactory",
  "sourceName": "contracts/AuctionFactory.sol",
  "abi": [
    {
      "anonymous": false,
      "inputs": [
        {
          "indexed": false,
          "internalType": "address",
          "name": "auctionAddress",
          "type": "address"
        }
      ],
      "name": "AuctionCreated",
      "type": "event"
    },
    {
      "inputs": [
        {
          "internalType": "uint256",
          "name": "",
          "type": "uint256"
        }
      ],
      "name": "auctions",
      "outputs": [
        {
          "internalType": "address",
          "name": "",
          "type": "address"
        }
      ],
      "stateMutability": "view",
      "type": "function"
    },
    {
      "inputs": [
        {
          "internalType": "uint256",
          "name": "_startBlock",
          "type": "uint256"
        },
        {
          "internalType": "uint256",
          "name": "_endBlock",
          "type": "uint256"
        },
        {
          "internalType": "uint256",
          "name": "_revealEndBlock",
          "type": "uint256"
        },
        {
          "internalType": "string",
          "name": "_ipfsHash",
          "type": "string"
        }
      ],
      "name": "createAuction",
      "outputs": [
        {
          "internalType": "address",
          "name": "",
          "type": "address"
        }
      ],
      "stateMutability": "nonpayable",
      "type": "function"
    },
    {
      "inputs": [],
      "name": "getAllAuctions",
      "outputs": [
        {
          "internalType": "address[]",
          "name": "",
          "type": "address[]"
        }
      ],
      "stateMutability": "view",
      "type": "function"
    }
  ],
  "bytecode": "0x608060405234801561001057600080fd5b50613451806100206000396000f3fe60806040523480156200001157600080fd5b5060043610620000465760003560e01c806315cda1af146200004b578063571a26a01462000081578063cbd2bdfd14620000b7575b600080fd5b62000069600480360381019062000063919062000454565b620000d9565b6040516200007891906200052a565b60405180910390f35b6200009f600480360381019062000099919062000547565b620001c5565b604051620000ae91906200052a565b60405180910390f35b620000c162000205565b604051620000d0919062000647565b60405180910390f35b60008085858585604051620000ee9062000295565b620000fd949392919062000705565b604051809103906000f0801580156200011a573d6000803e3d6000fd5b5090506000819080600181540180825580915050600190039060005260206000200160009091909190916101000a81548173ffffffffffffffffffffffffffffffffffffffff021916908373ffffffffffffffffffffffffffffffffffffffff1602179055507f8a8cc462d00726e0f8c031dd2d6b9dcdf0794fb27a88579830dadee27d43ea7c81604051620001b191906200052a565b60405180910390a180915050949350505050565b60008181548110620001d657600080fd5b906000526020600020016000915054906101000a900473ffffffffffffffffffffffffffffffffffffffff1681565b606060008054806020026020016040519081016040528092919081815260200182805480156200028b57602002820191906000526020600020905b8160009054906101000a900473ffffffffffffffffffffffffffffffffffffffff1673ffffffffffffffffffffffffffffffffffffffff168152602001906001019080831162000240575b5050505050905090565b612cc2806200075a83390190565b6000604051905090565b600080fd5b600080fd5b6000819050919050565b620002cc81620002b7565b8114620002d857600080fd5b50565b600081359050620002ec81620002c1565b92915050565b600080fd5b600080fd5b6000601f19601f8301169050919050565b7f4e487b7100000000000000000000000000000000000000000000000000000000600052604160045260246000fd5b6200034782620002fc565b810181811067ffffffffffffffff821117156200036957620003686200030d565b5b80604052505050565b60006200037e620002a3565b90506200038c82826200033c565b919050565b600067ffffffffffffffff821115620003af57620003ae6200030d565b5b620003ba82620002fc565b9050602081019050919050565b82818337600083830152505050565b6000620003ed620003e78462000391565b62000372565b9050828152602081018484840111156200040c576200040b620002f7565b5b62000419848285620003c7565b509392505050565b600082601f830112620004395762000438620002f2565b5b81356200044b848260208601620003d6565b91505092915050565b60008060008060808587031215620004715762000470620002ad565b5b60006200048187828801620002db565b94505060206200049487828801620002db565b9350506040620004a787828801620002db565b925050606085013567ffffffffffffffff811115620004cb57620004ca620002b2565b5b620004d98782880162000421565b91505092959194509250565b600073ffffffffffffffffffffffffffffffffffffffff82169050919050565b60006200051282620004e5565b9050919050565b620005248162000505565b82525050565b600060208201905062000541600083018462000519565b92915050565b60006020828403121562000560576200055f620002ad565b5b60006200057084828501620002db565b91505092915050565b600081519050919050565b600082825260208201905092915050565b6000819050602082019050919050565b620005b08162000505565b82525050565b6000620005c48383620005a5565b60208301905092915050565b6000602082019050919050565b6000620005ea8262000579565b620005f6818562000584565b9350620006038362000595565b8060005b838110156200063a5781516200061e8882620005b6565b97506200062b83620005d0565b92505060018101905062000607565b5085935050505092915050565b60006020820190508181036000830152620006638184620005dd565b905092915050565b6200067681620002b7565b82525050565b600081519050919050565b600082825260208201905092915050565b60005b83811015620006b85780820151818401526020810190506200069b565b60008484015250505050565b6000620006d1826200067c565b620006dd818562000687565b9350620006ef81856020860162000698565b620006fa81620002fc565b840191505092915050565b60006080820190506200071c60008301876200066b565b6200072b60208301866200066b565b6200073a60408301856200066b565b81810360608301526200074e8184620006c4565b90509594505050505056fe6101006040523480156200001257600080fd5b5060405162002cc238038062002cc283398181016040528101906200003891906200033e565b8284106200007d576040517f08c379a0000000000000000000000000000000000000000000000000000000008152600401620000749062000456565b60405180910390fd5b43841015620000c3576040517f08c379a0000000000000000000000000000000000000000000000000000000008152600401620000ba9062000514565b60405180910390fd5b81831062000108576040517f08c379a0000000000000000000000000000000000000000000000000000000008152600401620000ff90620005ac565b60405180910390fd5b3373ffffffffffffffffffffffffffffffffffffffff1660808173ffffffffffffffffffffffffffffffffffffffff16815250508360a081815250508260c081815250508160e0818152505080600090816200016591906200080f565b5050505050620008f6565b6000604051905090565b600080fd5b600080fd5b6000819050919050565b620001998162000184565b8114620001a557600080fd5b50565b600081519050620001b9816200018e565b92915050565b600080fd5b600080fd5b6000601f19601f8301169050919050565b7f4e487b7100000000000000000000000000000000000000000000000000000000600052604160045260246000fd5b6200021482620001c9565b810181811067ffffffffffffffff82111715620002365762000235620001da565b5b80604052505050565b60006200024b62000170565b905062000259828262000209565b919050565b600067ffffffffffffffff8211156200027c576200027b620001da565b5b6200028782620001c9565b9050602081019050919050565b60005b83811015620002b457808201518184015260208101905062000297565b60008484015250505050565b6000620002d7620002d1846200025e565b6200023f565b905082815260208101848484011115620002f657620002f5620001c4565b5b6200030384828562000294565b509392505050565b600082601f830112620003235762000322620001bf565b5b815162000335848260208601620002c0565b91505092915050565b600080600080608085870312156200035b576200035a6200017a565b5b60006200036b87828801620001a8565b94505060206200037e87828801620001a8565b93505060406200039187828801620001a8565b925050606085015167ffffffffffffffff811115620003b557620003b46200017f565b5b620003c3878288016200030b565b91505092959194509250565b600082825260208201905092915050565b7f456e64696e6720426c6f636b206d75737420626520677265617465722074686160008201527f6e205374617274696e6720426c6f636b2e000000000000000000000000000000602082015250565b60006200043e603183620003cf565b91506200044b82620003e0565b604082019050919050565b6000602082019050818103600083015262000471816200042f565b9050919050565b7f5374617274696e6720426c6f636b206d7573742062652067726561746572206f60008201527f7220657175616c20746f207468652043757272656e7420426c6f636b206e756d60208201527f6265722e00000000000000000000000000000000000000000000000000000000604082015250565b6000620004fc604483620003cf565b9150620005098262000478565b606082019050919050565b600060208201905081810360008301526200052f81620004ed565b9050919050565b7f52657665616c20656e6420626c6f636b206d757374206265206166746572206160008201527f756374696f6e20656e642e000000000000000000000000000000000000000000602082015250565b600062000594602b83620003cf565b9150620005a18262000536565b604082019050919050565b60006020820190508181036000830152620005c78162000585565b9050919050565b600081519050919050565b7f4e487b7100000000000000000000000000000000000000000000000000000000600052602260045260246000fd5b600060028204905060018216806200062157607f821691505b602082108103620006375762000636620005d9565b5b50919050565b60008190508160005260206000209050919050565b60006020601f8301049050919050565b600082821b905092915050565b600060088302620006a17fffffffffffffffffffffffffffffffffffffffffffffffffffffffffffffffff8262000662565b620006ad868362000662565b95508019841693508086168417925050509392505050565b6000819050919050565b6000620006f0620006ea620006e48462000184565b620006c5565b62000184565b9050919050565b6000819050919050565b6200070c83620006cf565b620007246200071b82620006f7565b8484546200066f565b825550505050565b600090565b6200073b6200072c565b6200074881848462000701565b505050565b5b8181101562000770576200076460008262000731565b6001810190506200074e565b5050565b601f821115620007bf5762000789816200063d565b620007948462000652565b81016020851015620007a4578190505b620007bc620007b38562000652565b8301826200074d565b50505b505050565b600082821c905092915050565b6000620007e460001984600802620007c4565b1980831691505092915050565b6000620007ff8383620007d1565b9150826002028217905092915050565b6200081a82620005ce565b67ffffffffffffffff811115620008365762000835620001da565b5b62000842825462000608565b6200084f82828562000774565b600060209050601f83116001811462000887576000841562000872578287015190505b6200087e8582620007f1565b865550620008ee565b601f19841662000897866200063d565b60005b82811015620008c1578489015182556001820191506020850194506020810190506200089a565b86831015620008e15784890151620008dd601f891682620007d1565b8355505b6001600288020188555050505b505050505050565b60805160a05160c05160e0516123456200097d6000396000818161042c015281816104c701526108d30152600081816104080152818161046501528181610cda0152818161100d01526112f9015260008181610c510152610c77015260008181610d8d01528181610f5901528181610f7f015281816111dd015261142101526123456000f3fe6080604052600436106100fe5760003560e01c806362ea82db1161009557806391f901571161006457806391f9015714610331578063c623674f1461035c578063ce10cf8014610387578063f5b56c56146103c4578063f77282ab146103ef576100fe565b806362ea82db146102725780637b13a547146102b05780638da5cb5b146102db5780638fa8b79014610306576100fe565b80633ccfd60b116100d15780633ccfd60b146101c15780633f9942ff146101ec57806348cd4cb114610217578063497ecfc514610242576100fe565b8063083c6323146101035780630bb5cbe11461012e5780631bf822e5146101595780632163b8c514610184575b600080fd5b34801561010f57600080fd5b50610118610406565b6040516101259190611522565b60405180910390f35b34801561013a57600080fd5b5061014361042a565b6040516101509190611522565b60405180910390f35b34801561016557600080fd5b5061016e61044e565b60405161017b9190611558565b60405180910390f35b34801561019057600080fd5b506101ab60048036038101906101a691906116f9565b610461565b6040516101b89190611558565b60405180910390f35b3480156101cd57600080fd5b506101d66108cf565b6040516101e39190611558565b60405180910390f35b3480156101f857600080fd5b50610201610c3c565b60405161020e9190611558565b60405180910390f35b34801561022357600080fd5b5061022c610c4f565b6040516102399190611522565b60405180910390f35b61025c6004803603810190610257919061178b565b610c73565b6040516102699190611558565b60405180910390f35b34801561027e57600080fd5b5061029960048036038101906102949190611816565b610f20565b6040516102a7929190611852565b60405180910390f35b3480156102bc57600080fd5b506102c5610f44565b6040516102d29190611558565b60405180910390f35b3480156102e757600080fd5b506102f0610f57565b6040516102fd919061188a565b60405180910390f35b34801561031257600080fd5b5061031b610f7b565b6040516103289190611558565b60405180910390f35b34801561033d57600080fd5b5061034661110b565b604051610353919061188a565b60405180910390f35b34801561036857600080fd5b5061037161112f565b60405161037e9190611924565b60405180910390f35b34801561039357600080fd5b506103ae60048036038101906103a99190611816565b6111bd565b6040516103bb9190611522565b60405180910390f35b3480156103d057600080fd5b506103d96111d5565b6040516103e69190611522565b60405180910390f35b3480156103fb57600080fd5b506104046111db565b005b7f000000000000000000000000000000000000000000000000000000000000000081565b7f000000000000000000000000000000000000000000000000000000000000000081565b600560019054906101000a900460ff1681565b60007f000000000000000000000000000000000000000000000000000000000000000043116104c5576040517f08c379a00000000000000000000000000000000000000000000000000000000081526004016104bc90611992565b60405180910390fd5b7f0000000000000000000000000000000000000000000000000000000000000000431115610528576040517f08c379a000000000000000000000000000000000000000000000000000000000815260040161051f906119fe565b60405180910390fd5b600160009054906101000a900460ff1615610578576040517f08c379a000000000000000000000000000000000000000000000000000000000815260040161056f90611a6a565b60405180910390fd5b6000600260003373ffffffffffffffffffffffffffffffffffffffff1673ffffffffffffffffffffffffffffffffffffffff16815260200190815260200160002090506000816001015411610602576040517f08c379a00000000000000000000000000000000000000000000000000000000081526004016105f990611ad6565b60405180910390fd5b60008484604051602001610617929190611b53565b60405160208183030381529060405280519060200120905081600001548103610852578482600101541015610681576040517f08c379a000000000000000000000000000000000000000000000000000000000815260040161067890611bed565b60405180910390fd5b6004548511156107a457600073ffffffffffffffffffffffffffffffffffffffff1660018054906101000a900473ffffffffffffffffffffffffffffffffffffffff1673ffffffffffffffffffffffffffffffffffffffff1614610758576004546003600060018054906101000a900473ffffffffffffffffffffffffffffffffffffffff1673ffffffffffffffffffffffffffffffffffffffff1673ffffffffffffffffffffffffffffffffffffffff16815260200190815260200160002060008282546107509190611c3c565b925050819055505b84600481905550336001806101000a81548173ffffffffffffffffffffffffffffffffffffffff021916908373ffffffffffffffffffffffffffffffffffffffff1602179055506107ff565b8160010154600360003373ffffffffffffffffffffffffffffffffffffffff1673ffffffffffffffffffffffffffffffffffffffff16815260200190815260200160002060008282546107f79190611c3c565b925050819055505b3373ffffffffffffffffffffffffffffffffffffffff167f6fea1df7c45f5255832154c59e2285afb32444f88ff7d534d572de007e06aa0b866040516108459190611522565b60405180910390a26108ad565b8160010154600360003373ffffffffffffffffffffffffffffffffffffffff1673ffffffffffffffffffffffffffffffffffffffff16815260200190815260200160002060008282546108a59190611c3c565b925050819055505b6000801b82600001819055506000826001018190555060019250505092915050565b60007f000000000000000000000000000000000000000000000000000000000000000043118061090b5750600160009054906101000a900460ff165b61094a576040517f08c379a000000000000000000000000000000000000000000000000000000000815260040161094190611ce2565b60405180910390fd5b6000600160009054906101000a900460ff16156109ab57600260003373ffffffffffffffffffffffffffffffffffffffff1673ffffffffffffffffffffffffffffffffffffffff168152602001908152602001600020600101549050610ab1565b60018054906101000a900473ffffffffffffffffffffffffffffffffffffffff1673ffffffffffffffffffffffffffffffffffffffff163373ffffffffffffffffffffffffffffffffffffffff1603610a6d57600454600360003373ffffffffffffffffffffffffffffffffffffffff1673ffffffffffffffffffffffffffffffffffffffff16815260200190815260200160002054610a4b9190611d02565b90506001600560006101000a81548160ff021916908315150217905550610ab0565b600360003373ffffffffffffffffffffffffffffffffffffffff1673ffffffffffffffffffffffffffffffffffffffff1681526020019081526020016000205490505b5b60008111610af4576040517f08c379a0000000000000000000000000000000000000000000000000000000008152600401610aeb90611da8565b60405180910390fd5b6000600360003373ffffffffffffffffffffffffffffffffffffffff1673ffffffffffffffffffffffffffffffffffffffff1681526020019081526020016000208190555060003373ffffffffffffffffffffffffffffffffffffffff1682604051610b5f90611df9565b60006040518083038185875af1925050503d8060008114610b9c576040519150601f19603f3d011682016040523d82523d6000602084013e610ba1565b606091505b5050905080610be5576040517f08c379a0000000000000000000000000000000000000000000000000000000008152600401610bdc90611e5a565b60405180910390fd5b3373ffffffffffffffffffffffffffffffffffffffff167fb4214c8c54fc7442f36d3682f59aebaf09358a4431835b30efb29d52cf9e1e9183604051610c2b9190611522565b60405180910390a260019250505090565b600160009054906101000a900460ff1681565b7f000000000000000000000000000000000000000000000000000000000000000081565b60007f0000000000000000000000000000000000000000000000000000000000000000431015610cd8576040517f08c379a0000000000000000000000000000000000000000000000000000000008152600401610ccf90611ec6565b60405180910390fd5b7f0000000000000000000000000000000000000000000000000000000000000000431115610d3b576040517f08c379a0000000000000000000000000000000000000000000000000000000008152600401610d3290611f32565b60405180910390fd5b600160009054906101000a900460ff1615610d8b576040517f08c379a0000000000000000000000000000000000000000000000000000000008152600401610d8290611a6a565b60405180910390fd5b7f000000000000000000000000000000000000000000000000000000000000000073ffffffffffffffffffffffffffffffffffffffff163373ffffffffffffffffffffffffffffffffffffffff1603610e19576040517f08c379a0000000000000000000000000000000000000000000000000000000008152600401610e1090611f9e565b60405180910390fd5b60003411610e5c576040517f08c379a0000000000000000000000000000000000000000000000000000000008152600401610e5390612030565b60405180910390fd5b604051806040016040528083815260200134815250600260003373ffffffffffffffffffffffffffffffffffffffff1673ffffffffffffffffffffffffffffffffffffffff16815260200190815260200160002060008201518160000155602082015181600101559050503373ffffffffffffffffffffffffffffffffffffffff167ffe2f521fceb24d66c7cec2dd0f33e83386c3c23eb342fbb7ed4e10d346f5d44d3484604051610f0f929190612050565b60405180910390a260019050919050565b60026020528060005260406000206000915090508060000154908060010154905082565b600560009054906101000a900460ff1681565b7f000000000000000000000000000000000000000000000000000000000000000081565b60007f000000000000000000000000000000000000000000000000000000000000000073ffffffffffffffffffffffffffffffffffffffff163373ffffffffffffffffffffffffffffffffffffffff161461100b576040517f08c379a0000000000000000000000000000000000000000000000000000000008152600401611002906120c5565b60405180910390fd5b7f000000000000000000000000000000000000000000000000000000000000000043111561106e576040517f08c379a000000000000000000000000000000000000000000000000000000000815260040161106590611f32565b60405180910390fd5b600160009054906101000a900460ff16156110be576040517f08c379a00000000000000000000000000000000000000000000000000000000081526004016110b590611a6a565b60405180910390fd5b60018060006101000a81548160ff0219169083151502179055507f462b6ca7f632601af1295aeb320851f50e8e630a309173f23535845ea4bfb3b960405160405180910390a16001905090565b60018054906101000a900473ffffffffffffffffffffffffffffffffffffffff1681565b6000805461113c90612114565b80601f016020809104026020016040519081016040528092919081815260200182805461116890612114565b80156111b55780601f1061118a576101008083540402835291602001916111b5565b820191906000526020600020905b81548152906001019060200180831161119857829003601f168201915b505050505081565b60036020528060005260406000206000915090505481565b60045481565b7f000000000000000000000000000000000000000000000000000000000000000073ffffffffffffffffffffffffffffffffffffffff163373ffffffffffffffffffffffffffffffffffffffff1614611269576040517f08c379a0000000000000000000000000000000000000000000000000000000008152600401611260906120c5565b60405180910390fd5b60018054906101000a900473ffffffffffffffffffffffffffffffffffffffff1673ffffffffffffffffffffffffffffffffffffffff163373ffffffffffffffffffffffffffffffffffffffff16146112f7576040517f08c379a00000000000000000000000000000000000000000000000000000000081526004016112ee90612191565b60405180910390fd5b7f00000000000000000000000000000000000000000000000000000000000000004311611359576040517f08c379a000000000000000000000000000000000000000000000000000000000815260040161135090611992565b60405180910390fd5b600160009054906101000a900460ff16156113a9576040517f08c379a00000000000000000000000000000000000000000000000000000000081526004016113a090611a6a565b60405180910390fd5b600560009054906101000a900460ff166113f8576040517f08c379a00000000000000000000000000000000000000000000000000000000081526004016113ef90612223565b60405180910390fd5b600060646004546114099190612272565b905060008160045461141b9190611d02565b905060007f000000000000000000000000000000000000000000000000000000000000000073ffffffffffffffffffffffffffffffffffffffff168260405161146390611df9565b60006040518083038185875af1925050503d80600081146114a0576040519150601f19603f3d011682016040523d82523d6000602084013e6114a5565b606091505b50509050806114e9576040517f08c379a00000000000000000000000000000000000000000000000000000000081526004016114e0906122ef565b60405180910390fd5b6001600560016101000a81548160ff021916908315150217905550505050565b6000819050919050565b61151c81611509565b82525050565b60006020820190506115376000830184611513565b92915050565b60008115159050919050565b6115528161153d565b82525050565b600060208201905061156d6000830184611549565b92915050565b6000604051905090565b600080fd5b600080fd5b61159081611509565b811461159b57600080fd5b50565b6000813590506115ad81611587565b92915050565b600080fd5b600080fd5b6000601f19601f8301169050919050565b7f4e487b7100000000000000000000000000000000000000000000000000000000600052604160045260246000fd5b611606826115bd565b810181811067ffffffffffffffff82111715611625576116246115ce565b5b80604052505050565b6000611638611573565b905061164482826115fd565b919050565b600067ffffffffffffffff821115611664576116636115ce565b5b61166d826115bd565b9050602081019050919050565b82818337600083830152505050565b600061169c61169784611649565b61162e565b9050828152602081018484840111156116b8576116b76115b8565b5b6116c384828561167a565b509392505050565b600082601f8301126116e0576116df6115b3565b5b81356116f0848260208601611689565b91505092915050565b600080604083850312156117105761170f61157d565b5b600061171e8582860161159e565b925050602083013567ffffffffffffffff81111561173f5761173e611582565b5b61174b858286016116cb565b9150509250929050565b6000819050919050565b61176881611755565b811461177357600080fd5b50565b6000813590506117858161175f565b92915050565b6000602082840312156117a1576117a061157d565b5b60006117af84828501611776565b91505092915050565b600073ffffffffffffffffffffffffffffffffffffffff82169050919050565b60006117e3826117b8565b9050919050565b6117f3816117d8565b81146117fe57600080fd5b50565b600081359050611810816117ea565b92915050565b60006020828403121561182c5761182b61157d565b5b600061183a84828501611801565b91505092915050565b61184c81611755565b82525050565b60006040820190506118676000830185611843565b6118746020830184611513565b9392505050565b611884816117d8565b82525050565b600060208201905061189f600083018461187b565b92915050565b600081519050919050565b600082825260208201905092915050565b60005b838110156118df5780820151818401526020810190506118c4565b60008484015250505050565b60006118f6826118a5565b61190081856118b0565b93506119108185602086016118c1565b611919816115bd565b840191505092915050565b6000602082019050818103600083015261193e81846118eb565b905092915050565b7f41756374696f6e206973207374696c6c206f6e676f696e672e00000000000000600082015250565b600061197c6019836118b0565b915061198782611946565b602082019050919050565b600060208201905081810360008301526119ab8161196f565b9050919050565b7f52657665616c20706572696f642068617320656e6465642e0000000000000000600082015250565b60006119e86018836118b0565b91506119f3826119b2565b602082019050919050565b60006020820190508181036000830152611a17816119db565b9050919050565b7f41756374696f6e20686173206265656e2063616e63656c65642e000000000000600082015250565b6000611a54601a836118b0565b9150611a5f82611a1e565b602082019050919050565b60006020820190508181036000830152611a8381611a47565b9050919050565b7f4e6f2062696420746f2072657665616c2e000000000000000000000000000000600082015250565b6000611ac06011836118b0565b9150611acb82611a8a565b602082019050919050565b60006020820190508181036000830152611aef81611ab3565b9050919050565b6000819050919050565b611b11611b0c82611509565b611af6565b82525050565b600081905092915050565b6000611b2d826118a5565b611b378185611b17565b9350611b478185602086016118c1565b80840191505092915050565b6000611b5f8285611b00565b602082019150611b6f8284611b22565b91508190509392505050565b7f4465706f736974206d75737420636f76657220746865206269642076616c756560008201527f2e00000000000000000000000000000000000000000000000000000000000000602082015250565b6000611bd76021836118b0565b9150611be282611b7b565b604082019050919050565b60006020820190508181036000830152611c0681611bca565b9050919050565b7f4e487b7100000000000000000000000000000000000000000000000000000000600052601160045260246000fd5b6000611c4782611509565b9150611c5283611509565b9250828201905080821115611c6a57611c69611c0d565b5b92915050565b7f41756374696f6e206973206e6f7420656e646564206f722063616e63656c656460008201527f2e00000000000000000000000000000000000000000000000000000000000000602082015250565b6000611ccc6021836118b0565b9150611cd782611c70565b604082019050919050565b60006020820190508181036000830152611cfb81611cbf565b9050919050565b6000611d0d82611509565b9150611d1883611509565b9250828203905081811115611d3057611d2f611c0d565b5b92915050565b7f5769746864726177616c20616d6f756e74206d7573742062652067726561746560008201527f72207468616e207a65726f2e0000000000000000000000000000000000000000602082015250565b6000611d92602c836118b0565b9150611d9d82611d36565b604082019050919050565b60006020820190508181036000830152611dc181611d85565b9050919050565b600081905092915050565b50565b6000611de3600083611dc8565b9150611dee82611dd3565b600082019050919050565b6000611e0482611dd6565b9150819050919050565b7f5472616e73666572206661696c65642e00000000000000000000000000000000600082015250565b6000611e446010836118b0565b9150611e4f82611e0e565b602082019050919050565b60006020820190508181036000830152611e7381611e37565b9050919050565b7f41756374696f6e20686173206e6f7420737461727465642e0000000000000000600082015250565b6000611eb06018836118b0565b9150611ebb82611e7a565b602082019050919050565b60006020820190508181036000830152611edf81611ea3565b9050919050565b7f41756374696f6e2068617320656e6465642e0000000000000000000000000000600082015250565b6000611f1c6012836118b0565b9150611f2782611ee6565b602082019050919050565b60006020820190508181036000830152611f4b81611f0f565b9050919050565b7f43616c6c657220697320746865206f776e65722e000000000000000000000000600082015250565b6000611f886014836118b0565b9150611f9382611f52565b602082019050919050565b60006020820190508181036000830152611fb781611f7b565b9050919050565b7f42696420616d6f756e74206d7573742062652067726561746572207468616e2060008201527f7a65726f2e000000000000000000000000000000000000000000000000000000602082015250565b600061201a6025836118b0565b915061202582611fbe565b604082019050919050565b600060208201905081810360008301526120498161200d565b9050919050565b60006040820190506120656000830185611513565b6120726020830184611843565b9392505050565b7f43616c6c6572206973206e6f7420746865206f776e65722e0000000000000000600082015250565b60006120af6018836118b0565b91506120ba82612079565b602082019050919050565b600060208201905081810360008301526120de816120a2565b9050919050565b7f4e487b7100000000000000000000000000000000000000000000000000000000600052602260045260246000fd5b6000600282049050600182168061212c57607f821691505b60208210810361213f5761213e6120e5565b5b50919050565b7f43616c6c6572206973206e6f74207468652077696e6e65722e00000000000000600082015250565b600061217b6019836118b0565b915061218682612145565b602082019050919050565b600060208201905081810360008301526121aa8161216e565b9050919050565b7f57696e6e6572206d75737420636f6e6669726d2072656365697074206f66207460008201527f6865206974656d2e000000000000000000000000000000000000000000000000602082015250565b600061220d6028836118b0565b9150612218826121b1565b604082019050919050565b6000602082019050818103600083015261223c81612200565b9050919050565b7f4e487b7100000000000000000000000000000000000000000000000000000000600052601260045260246000fd5b600061227d82611509565b915061228883611509565b92508261229857612297612243565b5b828204905092915050565b7f5061796f7574207472616e73666572206661696c65642e000000000000000000600082015250565b60006122d96017836118b0565b91506122e4826122a3565b602082019050919050565b60006020820190508181036000830152612308816122cc565b905091905056fea264697066735822122065c5b3763d32eaa85f8efb2dc88299e928221952b5c57928b785a6f86539dfc564736f6c63430008130033a2646970667358221220ec8d60f03ef9bd8c0123931c60b9e23db1a00100e69518c32afbe180e4692f9464736f6c63430008130033",
  "linkReferences": {},
  "deployedLinkReferences": {}
}