{
  "_format": "hh-sol-artifact-1",
  "contractName": "AuctionFactory",
  "sourceName": "contracts/AuctionFactory.sol",
  "abi": [
    {
      "anonymous": false,
      "inputs": [
        {
          "indexed": true,
          "internalType": "address",
          "name": "auctionAddress",
          "type": "address"
        }
      ],
      "name": "AuctionCreated",
      "type": "event"
    },
    {
      "inputs": [
        {
          "internalType": "uint256",
          "name": "",
          "type": "uint256"
        }
      ],
      "name": "auctions",
      "outputs": [
        {
          "internalType": "address",
          "name": "",
          "type": "address"
        }
      ],
      "stateMutability": "view",
      "type": "function"
    },
    {
      "inputs": [
        {
          "internalType": "uint256",
          "name": "_startBlock",
          "type": "uint256"
        },
        {
          "internalType": "uint256",
          "name": "_endBlock",
          "type": "uint256"
        },
        {
          "internalType": "uint256",
          "name": "_revealEndBlock",
          "type": "uint256"
        },
        {
          "internalType": "string",
          "name": "_ipfsHash",
          "type": "string"
        }
      ],
      "name": "createAuction",
      "outputs": [
        {
          "internalType": "address",
          "name": "auctionAddress",
          "type": "address"
        }
      ],
      "stateMutability": "nonpayable",
      "type": "function"
    },
    {
      "inputs": [],
      "name": "getAllAuctions",
      "outputs": [
        {
          "internalType": "address[]",
          "name": "auctionList",
          "type": "address[]"
        }
      ],
      "stateMutability": "view",
      "type": "function"
    }
  ],
  "bytecode": "0x608060405234801561001057600080fd5b50613697806100206000396000f3fe60806040523480156200001157600080fd5b5060043610620000465760003560e01c806315cda1af146200004b578063571a26a01462000081578063cbd2bdfd14620000b7575b600080fd5b6200006960048036038101906200006391906200045e565b620000d9565b60405162000078919062000534565b60405180910390f35b6200009f600480360381019062000099919062000551565b620001cf565b604051620000ae919062000534565b60405180910390f35b620000c16200020f565b604051620000d0919062000651565b60405180910390f35b60008085858585604051620000ee906200029f565b620000fd94939291906200070f565b604051809103906000f0801580156200011a573d6000803e3d6000fd5b5090508091506000829080600181540180825580915050600190039060005260206000200160009091909190916101000a81548173ffffffffffffffffffffffffffffffffffffffff021916908373ffffffffffffffffffffffffffffffffffffffff1602179055508173ffffffffffffffffffffffffffffffffffffffff167f8a8cc462d00726e0f8c031dd2d6b9dcdf0794fb27a88579830dadee27d43ea7c60405160405180910390a250949350505050565b60008181548110620001e057600080fd5b906000526020600020016000915054906101000a900473ffffffffffffffffffffffffffffffffffffffff1681565b606060008054806020026020016040519081016040528092919081815260200182805480156200029557602002820191906000526020600020905b8160009054906101000a900473ffffffffffffffffffffffffffffffffffffffff1673ffffffffffffffffffffffffffffffffffffffff16815260200190600101908083116200024a575b5050505050905090565b612efe806200076483390190565b6000604051905090565b600080fd5b600080fd5b6000819050919050565b620002d681620002c1565b8114620002e257600080fd5b50565b600081359050620002f681620002cb565b92915050565b600080fd5b600080fd5b6000601f19601f8301169050919050565b7f4e487b7100000000000000000000000000000000000000000000000000000000600052604160045260246000fd5b620003518262000306565b810181811067ffffffffffffffff8211171562000373576200037262000317565b5b80604052505050565b600062000388620002ad565b905062000396828262000346565b919050565b600067ffffffffffffffff821115620003b957620003b862000317565b5b620003c48262000306565b9050602081019050919050565b82818337600083830152505050565b6000620003f7620003f1846200039b565b6200037c565b90508281526020810184848401111562000416576200041562000301565b5b62000423848285620003d1565b509392505050565b600082601f830112620004435762000442620002fc565b5b813562000455848260208601620003e0565b91505092915050565b600080600080608085870312156200047b576200047a620002b7565b5b60006200048b87828801620002e5565b94505060206200049e87828801620002e5565b9350506040620004b187828801620002e5565b925050606085013567ffffffffffffffff811115620004d557620004d4620002bc565b5b620004e3878288016200042b565b91505092959194509250565b600073ffffffffffffffffffffffffffffffffffffffff82169050919050565b60006200051c82620004ef565b9050919050565b6200052e816200050f565b82525050565b60006020820190506200054b600083018462000523565b92915050565b6000602082840312156200056a5762000569620002b7565b5b60006200057a84828501620002e5565b91505092915050565b600081519050919050565b600082825260208201905092915050565b6000819050602082019050919050565b620005ba816200050f565b82525050565b6000620005ce8383620005af565b60208301905092915050565b6000602082019050919050565b6000620005f48262000583565b6200060081856200058e565b93506200060d836200059f565b8060005b8381101562000644578151620006288882620005c0565b97506200063583620005da565b92505060018101905062000611565b5085935050505092915050565b600060208201905081810360008301526200066d8184620005e7565b905092915050565b6200068081620002c1565b82525050565b600081519050919050565b600082825260208201905092915050565b60005b83811015620006c2578082015181840152602081019050620006a5565b60008484015250505050565b6000620006db8262000686565b620006e7818562000691565b9350620006f9818560208601620006a2565b620007048162000306565b840191505092915050565b600060808201905062000726600083018762000675565b62000735602083018662000675565b62000744604083018562000675565b8181036060830152620007588184620006ce565b90509594505050505056fe6101006040523480156200001257600080fd5b5060405162002efe38038062002efe83398181016040528101906200003891906200033e565b8284106200007d576040517f08c379a0000000000000000000000000000000000000000000000000000000008152600401620000749062000456565b60405180910390fd5b43841015620000c3576040517f08c379a0000000000000000000000000000000000000000000000000000000008152600401620000ba9062000514565b60405180910390fd5b81831062000108576040517f08c379a0000000000000000000000000000000000000000000000000000000008152600401620000ff90620005ac565b60405180910390fd5b3373ffffffffffffffffffffffffffffffffffffffff1660808173ffffffffffffffffffffffffffffffffffffffff16815250508360a081815250508260c081815250508160e0818152505080600090816200016591906200080f565b5050505050620008f6565b6000604051905090565b600080fd5b600080fd5b6000819050919050565b620001998162000184565b8114620001a557600080fd5b50565b600081519050620001b9816200018e565b92915050565b600080fd5b600080fd5b6000601f19601f8301169050919050565b7f4e487b7100000000000000000000000000000000000000000000000000000000600052604160045260246000fd5b6200021482620001c9565b810181811067ffffffffffffffff82111715620002365762000235620001da565b5b80604052505050565b60006200024b62000170565b905062000259828262000209565b919050565b600067ffffffffffffffff8211156200027c576200027b620001da565b5b6200028782620001c9565b9050602081019050919050565b60005b83811015620002b457808201518184015260208101905062000297565b60008484015250505050565b6000620002d7620002d1846200025e565b6200023f565b905082815260208101848484011115620002f657620002f5620001c4565b5b6200030384828562000294565b509392505050565b600082601f830112620003235762000322620001bf565b5b815162000335848260208601620002c0565b91505092915050565b600080600080608085870312156200035b576200035a6200017a565b5b60006200036b87828801620001a8565b94505060206200037e87828801620001a8565b93505060406200039187828801620001a8565b925050606085015167ffffffffffffffff811115620003b557620003b46200017f565b5b620003c3878288016200030b565b91505092959194509250565b600082825260208201905092915050565b7f456e64696e6720426c6f636b206d75737420626520677265617465722074686160008201527f6e205374617274696e6720426c6f636b2e000000000000000000000000000000602082015250565b60006200043e603183620003cf565b91506200044b82620003e0565b604082019050919050565b6000602082019050818103600083015262000471816200042f565b9050919050565b7f5374617274696e6720426c6f636b206d7573742062652067726561746572206f60008201527f7220657175616c20746f207468652043757272656e7420426c6f636b206e756d60208201527f6265722e00000000000000000000000000000000000000000000000000000000604082015250565b6000620004fc604483620003cf565b9150620005098262000478565b606082019050919050565b600060208201905081810360008301526200052f81620004ed565b9050919050565b7f52657665616c20656e6420626c6f636b206d757374206265206166746572206160008201527f756374696f6e20656e642e000000000000000000000000000000000000000000602082015250565b600062000594602b83620003cf565b9150620005a18262000536565b604082019050919050565b60006020820190508181036000830152620005c78162000585565b9050919050565b600081519050919050565b7f4e487b7100000000000000000000000000000000000000000000000000000000600052602260045260246000fd5b600060028204905060018216806200062157607f821691505b602082108103620006375762000636620005d9565b5b50919050565b60008190508160005260206000209050919050565b60006020601f8301049050919050565b600082821b905092915050565b600060088302620006a17fffffffffffffffffffffffffffffffffffffffffffffffffffffffffffffffff8262000662565b620006ad868362000662565b95508019841693508086168417925050509392505050565b6000819050919050565b6000620006f0620006ea620006e48462000184565b620006c5565b62000184565b9050919050565b6000819050919050565b6200070c83620006cf565b620007246200071b82620006f7565b8484546200066f565b825550505050565b600090565b6200073b6200072c565b6200074881848462000701565b505050565b5b8181101562000770576200076460008262000731565b6001810190506200074e565b5050565b601f821115620007bf5762000789816200063d565b620007948462000652565b81016020851015620007a4578190505b620007bc620007b38562000652565b8301826200074d565b50505b505050565b600082821c905092915050565b6000620007e460001984600802620007c4565b1980831691505092915050565b6000620007ff8383620007d1565b9150826002028217905092915050565b6200081a82620005ce565b67ffffffffffffffff811115620008365762000835620001da565b5b62000842825462000608565b6200084f82828562000774565b600060209050601f83116001811462000887576000841562000872578287015190505b6200087e8582620007f1565b865550620008ee565b601f19841662000897866200063d565b60005b82811015620008c1578489015182556001820191506020850194506020810190506200089a565b86831015620008e15784890151620008dd601f891682620007d1565b8355505b6001600288020188555050505b505050505050565b60805160a05160c05160e0516125816200097d6000396000818161046d015281816104a60152610dc00152600081816104490152818161090101528181610c3801528181610d5e01526113ff015260008181610878015261089e0152600081816109b401528181610b8401528181610baa015281816112e3015261152701526125816000f3fe6080604052600436106100fe5760003560e01c80637b13a54711610095578063a489d5d711610064578063a489d5d71461031f578063c623674f1461035c578063ce10cf8014610387578063f5b56c56146103c4578063f77282ab146103ef576100fe565b80637b13a547146102735780638da5cb5b1461029e5780638fa8b790146102c957806391f90157146102f4576100fe565b80633ccfd60b116100d15780633ccfd60b146101c25780633f9942ff146101ed57806348cd4cb114610218578063497ecfc514610243576100fe565b806301495c1c14610103578063083c6323146101415780630bb5cbe11461016c5780631bf822e514610197575b600080fd5b34801561010f57600080fd5b5061012a600480360381019061012591906116b7565b610406565b60405161013892919061171f565b60405180910390f35b34801561014d57600080fd5b50610156610447565b6040516101639190611748565b60405180910390f35b34801561017857600080fd5b5061018161046b565b60405161018e9190611748565b60405180910390f35b3480156101a357600080fd5b506101ac61048f565b6040516101b9919061177e565b60405180910390f35b3480156101ce57600080fd5b506101d76104a2565b6040516101e4919061177e565b60405180910390f35b3480156101f957600080fd5b50610202610863565b60405161020f919061177e565b60405180910390f35b34801561022457600080fd5b5061022d610876565b60405161023a9190611748565b60405180910390f35b61025d600480360381019061025891906117c5565b61089a565b60405161026a919061177e565b60405180910390f35b34801561027f57600080fd5b50610288610b6f565b604051610295919061177e565b60405180910390f35b3480156102aa57600080fd5b506102b3610b82565b6040516102c09190611801565b60405180910390f35b3480156102d557600080fd5b506102de610ba6565b6040516102eb919061177e565b60405180910390f35b34801561030057600080fd5b50610309610d36565b6040516103169190611801565b60405180910390f35b34801561032b57600080fd5b5061034660048036038101906103419190611962565b610d5a565b604051610353919061177e565b60405180910390f35b34801561036857600080fd5b50610371611235565b60405161037e9190611a50565b60405180910390f35b34801561039357600080fd5b506103ae60048036038101906103a99190611a72565b6112c3565b6040516103bb9190611748565b60405180910390f35b3480156103d057600080fd5b506103d96112db565b6040516103e69190611748565b60405180910390f35b3480156103fb57600080fd5b506104046112e1565b005b6002602052816000526040600020818154811061042257600080fd5b9060005260206000209060020201600091509150508060000154908060010154905082565b7f000000000000000000000000000000000000000000000000000000000000000081565b7f000000000000000000000000000000000000000000000000000000000000000081565b600560019054906101000a900460ff1681565b60007f00000000000000000000000000000000000000000000000000000000000000004311806104de5750600160009054906101000a900460ff165b61051d576040517f08c379a000000000000000000000000000000000000000000000000000000000815260040161051490611b11565b60405180910390fd5b6000600160009054906101000a900460ff16156105d2576000600260003373ffffffffffffffffffffffffffffffffffffffff1673ffffffffffffffffffffffffffffffffffffffff168152602001908152602001600020905060005b81805490508110156105cb5781818154811061059957610598611b31565b5b906000526020600020906002020160010154836105b69190611b8f565b925080806105c390611bc3565b91505061057a565b50506106d8565b60018054906101000a900473ffffffffffffffffffffffffffffffffffffffff1673ffffffffffffffffffffffffffffffffffffffff163373ffffffffffffffffffffffffffffffffffffffff160361069457600454600360003373ffffffffffffffffffffffffffffffffffffffff1673ffffffffffffffffffffffffffffffffffffffff168152602001908152602001600020546106729190611c0b565b90506001600560006101000a81548160ff0219169083151502179055506106d7565b600360003373ffffffffffffffffffffffffffffffffffffffff1673ffffffffffffffffffffffffffffffffffffffff1681526020019081526020016000205490505b5b6000811161071b576040517f08c379a000000000000000000000000000000000000000000000000000000000815260040161071290611cb1565b60405180910390fd5b6000600360003373ffffffffffffffffffffffffffffffffffffffff1673ffffffffffffffffffffffffffffffffffffffff1681526020019081526020016000208190555060003373ffffffffffffffffffffffffffffffffffffffff168260405161078690611d02565b60006040518083038185875af1925050503d80600081146107c3576040519150601f19603f3d011682016040523d82523d6000602084013e6107c8565b606091505b505090508061080c576040517f08c379a000000000000000000000000000000000000000000000000000000000815260040161080390611d63565b60405180910390fd5b3373ffffffffffffffffffffffffffffffffffffffff167fb4214c8c54fc7442f36d3682f59aebaf09358a4431835b30efb29d52cf9e1e91836040516108529190611748565b60405180910390a260019250505090565b600160009054906101000a900460ff1681565b7f000000000000000000000000000000000000000000000000000000000000000081565b60007f00000000000000000000000000000000000000000000000000000000000000004310156108ff576040517f08c379a00000000000000000000000000000000000000000000000000000000081526004016108f690611dcf565b60405180910390fd5b7f0000000000000000000000000000000000000000000000000000000000000000431115610962576040517f08c379a000000000000000000000000000000000000000000000000000000000815260040161095990611e3b565b60405180910390fd5b600160009054906101000a900460ff16156109b2576040517f08c379a00000000000000000000000000000000000000000000000000000000081526004016109a990611ea7565b60405180910390fd5b7f000000000000000000000000000000000000000000000000000000000000000073ffffffffffffffffffffffffffffffffffffffff163373ffffffffffffffffffffffffffffffffffffffff1603610a40576040517f08c379a0000000000000000000000000000000000000000000000000000000008152600401610a3790611f13565b60405180910390fd5b60003411610a83576040517f08c379a0000000000000000000000000000000000000000000000000000000008152600401610a7a90611fa5565b60405180910390fd5b600260003373ffffffffffffffffffffffffffffffffffffffff1673ffffffffffffffffffffffffffffffffffffffff1681526020019081526020016000206040518060400160405280848152602001348152509080600181540180825580915050600190039060005260206000209060020201600090919091909150600082015181600001556020820151816001015550503373ffffffffffffffffffffffffffffffffffffffff167ffe2f521fceb24d66c7cec2dd0f33e83386c3c23eb342fbb7ed4e10d346f5d44d3484604051610b5e929190611fc5565b60405180910390a260019050919050565b600560009054906101000a900460ff1681565b7f000000000000000000000000000000000000000000000000000000000000000081565b60007f000000000000000000000000000000000000000000000000000000000000000073ffffffffffffffffffffffffffffffffffffffff163373ffffffffffffffffffffffffffffffffffffffff1614610c36576040517f08c379a0000000000000000000000000000000000000000000000000000000008152600401610c2d9061203a565b60405180910390fd5b7f0000000000000000000000000000000000000000000000000000000000000000431115610c99576040517f08c379a0000000000000000000000000000000000000000000000000000000008152600401610c9090611e3b565b60405180910390fd5b600160009054906101000a900460ff1615610ce9576040517f08c379a0000000000000000000000000000000000000000000000000000000008152600401610ce090611ea7565b60405180910390fd5b60018060006101000a81548160ff0219169083151502179055507f462b6ca7f632601af1295aeb320851f50e8e630a309173f23535845ea4bfb3b960405160405180910390a16001905090565b60018054906101000a900473ffffffffffffffffffffffffffffffffffffffff1681565b60007f00000000000000000000000000000000000000000000000000000000000000004311610dbe576040517f08c379a0000000000000000000000000000000000000000000000000000000008152600401610db5906120a6565b60405180910390fd5b7f0000000000000000000000000000000000000000000000000000000000000000431115610e21576040517f08c379a0000000000000000000000000000000000000000000000000000000008152600401610e1890612112565b60405180910390fd5b600160009054906101000a900460ff1615610e71576040517f08c379a0000000000000000000000000000000000000000000000000000000008152600401610e6890611ea7565b60405180910390fd5b6000600260003373ffffffffffffffffffffffffffffffffffffffff1673ffffffffffffffffffffffffffffffffffffffff168152602001908152602001600020905080805490508510610efa576040517f08c379a0000000000000000000000000000000000000000000000000000000008152600401610ef19061217e565b60405180910390fd5b6000818681548110610f0f57610f0e611b31565b5b906000526020600020906002020190506000816001015411610f66576040517f08c379a0000000000000000000000000000000000000000000000000000000008152600401610f5d906121ea565b60405180910390fd5b60008585604051602001610f7b929190612267565b604051602081830303815290604052805190602001209050816000015481036111b6578582600101541015610fe5576040517f08c379a0000000000000000000000000000000000000000000000000000000008152600401610fdc90612301565b60405180910390fd5b60045486111561110857600073ffffffffffffffffffffffffffffffffffffffff1660018054906101000a900473ffffffffffffffffffffffffffffffffffffffff1673ffffffffffffffffffffffffffffffffffffffff16146110bc576004546003600060018054906101000a900473ffffffffffffffffffffffffffffffffffffffff1673ffffffffffffffffffffffffffffffffffffffff1673ffffffffffffffffffffffffffffffffffffffff16815260200190815260200160002060008282546110b49190611b8f565b925050819055505b85600481905550336001806101000a81548173ffffffffffffffffffffffffffffffffffffffff021916908373ffffffffffffffffffffffffffffffffffffffff160217905550611163565b8160010154600360003373ffffffffffffffffffffffffffffffffffffffff1673ffffffffffffffffffffffffffffffffffffffff168152602001908152602001600020600082825461115b9190611b8f565b925050819055505b3373ffffffffffffffffffffffffffffffffffffffff167f6fea1df7c45f5255832154c59e2285afb32444f88ff7d534d572de007e06aa0b876040516111a99190611748565b60405180910390a2611211565b8160010154600360003373ffffffffffffffffffffffffffffffffffffffff1673ffffffffffffffffffffffffffffffffffffffff16815260200190815260200160002060008282546112099190611b8f565b925050819055505b6000801b826000018190555060008260010181905550600193505050509392505050565b6000805461124290612350565b80601f016020809104026020016040519081016040528092919081815260200182805461126e90612350565b80156112bb5780601f10611290576101008083540402835291602001916112bb565b820191906000526020600020905b81548152906001019060200180831161129e57829003601f168201915b505050505081565b60036020528060005260406000206000915090505481565b60045481565b7f000000000000000000000000000000000000000000000000000000000000000073ffffffffffffffffffffffffffffffffffffffff163373ffffffffffffffffffffffffffffffffffffffff161461136f576040517f08c379a00000000000000000000000000000000000000000000000000000000081526004016113669061203a565b60405180910390fd5b60018054906101000a900473ffffffffffffffffffffffffffffffffffffffff1673ffffffffffffffffffffffffffffffffffffffff163373ffffffffffffffffffffffffffffffffffffffff16146113fd576040517f08c379a00000000000000000000000000000000000000000000000000000000081526004016113f4906123cd565b60405180910390fd5b7f0000000000000000000000000000000000000000000000000000000000000000431161145f576040517f08c379a0000000000000000000000000000000000000000000000000000000008152600401611456906120a6565b60405180910390fd5b600160009054906101000a900460ff16156114af576040517f08c379a00000000000000000000000000000000000000000000000000000000081526004016114a690611ea7565b60405180910390fd5b600560009054906101000a900460ff166114fe576040517f08c379a00000000000000000000000000000000000000000000000000000000081526004016114f59061245f565b60405180910390fd5b6000606460045461150f91906124ae565b90506000816004546115219190611c0b565b905060007f000000000000000000000000000000000000000000000000000000000000000073ffffffffffffffffffffffffffffffffffffffff168260405161156990611d02565b60006040518083038185875af1925050503d80600081146115a6576040519150601f19603f3d011682016040523d82523d6000602084013e6115ab565b606091505b50509050806115ef576040517f08c379a00000000000000000000000000000000000000000000000000000000081526004016115e69061252b565b60405180910390fd5b6001600560016101000a81548160ff021916908315150217905550505050565b6000604051905090565b600080fd5b600080fd5b600073ffffffffffffffffffffffffffffffffffffffff82169050919050565b600061164e82611623565b9050919050565b61165e81611643565b811461166957600080fd5b50565b60008135905061167b81611655565b92915050565b6000819050919050565b61169481611681565b811461169f57600080fd5b50565b6000813590506116b18161168b565b92915050565b600080604083850312156116ce576116cd611619565b5b60006116dc8582860161166c565b92505060206116ed858286016116a2565b9150509250929050565b6000819050919050565b61170a816116f7565b82525050565b61171981611681565b82525050565b60006040820190506117346000830185611701565b6117416020830184611710565b9392505050565b600060208201905061175d6000830184611710565b92915050565b60008115159050919050565b61177881611763565b82525050565b6000602082019050611793600083018461176f565b92915050565b6117a2816116f7565b81146117ad57600080fd5b50565b6000813590506117bf81611799565b92915050565b6000602082840312156117db576117da611619565b5b60006117e9848285016117b0565b91505092915050565b6117fb81611643565b82525050565b600060208201905061181660008301846117f2565b92915050565b600080fd5b600080fd5b6000601f19601f8301169050919050565b7f4e487b7100000000000000000000000000000000000000000000000000000000600052604160045260246000fd5b61186f82611826565b810181811067ffffffffffffffff8211171561188e5761188d611837565b5b80604052505050565b60006118a161160f565b90506118ad8282611866565b919050565b600067ffffffffffffffff8211156118cd576118cc611837565b5b6118d682611826565b9050602081019050919050565b82818337600083830152505050565b6000611905611900846118b2565b611897565b90508281526020810184848401111561192157611920611821565b5b61192c8482856118e3565b509392505050565b600082601f8301126119495761194861181c565b5b81356119598482602086016118f2565b91505092915050565b60008060006060848603121561197b5761197a611619565b5b6000611989868287016116a2565b935050602061199a868287016116a2565b925050604084013567ffffffffffffffff8111156119bb576119ba61161e565b5b6119c786828701611934565b9150509250925092565b600081519050919050565b600082825260208201905092915050565b60005b83811015611a0b5780820151818401526020810190506119f0565b60008484015250505050565b6000611a22826119d1565b611a2c81856119dc565b9350611a3c8185602086016119ed565b611a4581611826565b840191505092915050565b60006020820190508181036000830152611a6a8184611a17565b905092915050565b600060208284031215611a8857611a87611619565b5b6000611a968482850161166c565b91505092915050565b7f41756374696f6e206973206e6f7420656e646564206f722063616e63656c656460008201527f2e00000000000000000000000000000000000000000000000000000000000000602082015250565b6000611afb6021836119dc565b9150611b0682611a9f565b604082019050919050565b60006020820190508181036000830152611b2a81611aee565b9050919050565b7f4e487b7100000000000000000000000000000000000000000000000000000000600052603260045260246000fd5b7f4e487b7100000000000000000000000000000000000000000000000000000000600052601160045260246000fd5b6000611b9a82611681565b9150611ba583611681565b9250828201905080821115611bbd57611bbc611b60565b5b92915050565b6000611bce82611681565b91507fffffffffffffffffffffffffffffffffffffffffffffffffffffffffffffffff8203611c0057611bff611b60565b5b600182019050919050565b6000611c1682611681565b9150611c2183611681565b9250828203905081811115611c3957611c38611b60565b5b92915050565b7f5769746864726177616c20616d6f756e74206d7573742062652067726561746560008201527f72207468616e207a65726f2e0000000000000000000000000000000000000000602082015250565b6000611c9b602c836119dc565b9150611ca682611c3f565b604082019050919050565b60006020820190508181036000830152611cca81611c8e565b9050919050565b600081905092915050565b50565b6000611cec600083611cd1565b9150611cf782611cdc565b600082019050919050565b6000611d0d82611cdf565b9150819050919050565b7f5472616e73666572206661696c65642e00000000000000000000000000000000600082015250565b6000611d4d6010836119dc565b9150611d5882611d17565b602082019050919050565b60006020820190508181036000830152611d7c81611d40565b9050919050565b7f41756374696f6e20686173206e6f7420737461727465642e0000000000000000600082015250565b6000611db96018836119dc565b9150611dc482611d83565b602082019050919050565b60006020820190508181036000830152611de881611dac565b9050919050565b7f41756374696f6e2068617320656e6465642e0000000000000000000000000000600082015250565b6000611e256012836119dc565b9150611e3082611def565b602082019050919050565b60006020820190508181036000830152611e5481611e18565b9050919050565b7f41756374696f6e20686173206265656e2063616e63656c65642e000000000000600082015250565b6000611e91601a836119dc565b9150611e9c82611e5b565b602082019050919050565b60006020820190508181036000830152611ec081611e84565b9050919050565b7f43616c6c657220697320746865206f776e65722e000000000000000000000000600082015250565b6000611efd6014836119dc565b9150611f0882611ec7565b602082019050919050565b60006020820190508181036000830152611f2c81611ef0565b9050919050565b7f42696420616d6f756e74206d7573742062652067726561746572207468616e2060008201527f7a65726f2e000000000000000000000000000000000000000000000000000000602082015250565b6000611f8f6025836119dc565b9150611f9a82611f33565b604082019050919050565b60006020820190508181036000830152611fbe81611f82565b9050919050565b6000604082019050611fda6000830185611710565b611fe76020830184611701565b9392505050565b7f43616c6c6572206973206e6f7420746865206f776e65722e0000000000000000600082015250565b60006120246018836119dc565b915061202f82611fee565b602082019050919050565b6000602082019050818103600083015261205381612017565b9050919050565b7f41756374696f6e206973207374696c6c206f6e676f696e672e00000000000000600082015250565b60006120906019836119dc565b915061209b8261205a565b602082019050919050565b600060208201905081810360008301526120bf81612083565b9050919050565b7f52657665616c20706572696f642068617320656e6465642e0000000000000000600082015250565b60006120fc6018836119dc565b9150612107826120c6565b602082019050919050565b6000602082019050818103600083015261212b816120ef565b9050919050565b7f496e76616c69642062696420696e6465782e0000000000000000000000000000600082015250565b60006121686012836119dc565b915061217382612132565b602082019050919050565b600060208201905081810360008301526121978161215b565b9050919050565b7f4e6f2062696420746f2072657665616c2e000000000000000000000000000000600082015250565b60006121d46011836119dc565b91506121df8261219e565b602082019050919050565b60006020820190508181036000830152612203816121c7565b9050919050565b6000819050919050565b61222561222082611681565b61220a565b82525050565b600081905092915050565b6000612241826119d1565b61224b818561222b565b935061225b8185602086016119ed565b80840191505092915050565b60006122738285612214565b6020820191506122838284612236565b91508190509392505050565b7f4465706f736974206d75737420636f76657220746865206269642076616c756560008201527f2e00000000000000000000000000000000000000000000000000000000000000602082015250565b60006122eb6021836119dc565b91506122f68261228f565b604082019050919050565b6000602082019050818103600083015261231a816122de565b9050919050565b7f4e487b7100000000000000000000000000000000000000000000000000000000600052602260045260246000fd5b6000600282049050600182168061236857607f821691505b60208210810361237b5761237a612321565b5b50919050565b7f43616c6c6572206973206e6f74207468652077696e6e65722e00000000000000600082015250565b60006123b76019836119dc565b91506123c282612381565b602082019050919050565b600060208201905081810360008301526123e6816123aa565b9050919050565b7f57696e6e6572206d75737420636f6e6669726d2072656365697074206f66207460008201527f6865206974656d2e000000000000000000000000000000000000000000000000602082015250565b60006124496028836119dc565b9150612454826123ed565b604082019050919050565b600060208201905081810360008301526124788161243c565b9050919050565b7f4e487b7100000000000000000000000000000000000000000000000000000000600052601260045260246000fd5b60006124b982611681565b91506124c483611681565b9250826124d4576124d361247f565b5b828204905092915050565b7f5061796f7574207472616e73666572206661696c65642e000000000000000000600082015250565b60006125156017836119dc565b9150612520826124df565b602082019050919050565b6000602082019050818103600083015261254481612508565b905091905056fea2646970667358221220e118f00dea71faff0b405c9ccbf0e9d2648b29f32edb6fc076bc061899ba39fa64736f6c63430008130033a26469706673582212202c8af001487570eab0d4313aa8c28e268ba73b3e8d21bfd135ff7280873d066064736f6c63430008130033",
  "linkReferences": {},
  "deployedLinkReferences": {}
}